:10FA00005E4203001EF30524DF42660000000F4340
:10FA10003041FF4300003F4330415F4203001FF38A
:10FA2000FC275F42660030415E4265001EF3FC2306
:10FA3000C24F67000F4330416D4F7D900A000B2489
:10FA40001F535E4265001EF3FC23C24D67007D4FCD
:10FA50007D900A00F6235F4265001FF3FC23F2400D
:10FA60000A0067005F4265001FF3FC23F2400D00AF
:10FA7000670030410E4F3E5000403E90003C162C37
:10FA800092B32C01FD23B24084A52A01B24000A507
:10FA90002C01B24002A52801CF4300001F422C01D7
:10FAA0001FF3FC23B24010A52C0130413F433041ED
:10FAB0000D4E3D5000403D90003C162C92B32C0161
:10FAC000FD23B24084A52A01B24000A52C01B2401A
:10FAD00040A52801CE4F00001F422C011FF3FC233C
:10FAE000B24000A5280130413F4330413150F0FF82
:10FAF000F14030000000F14031000100F1403200DF
:10FB00000200F14033000300F14034000400F140F2
:10FB100035000500F14036000600F14037000700CF
:10FB2000F14038000800F14039000900F14041007F
:10FB30000A00F14042000B00F14043000C00F1408C
:10FB400044000D00F14045000E00F14046000F005A
:10FB50007D4030000E43033C0D410D5E6D4D4F9DC9
:10FB600008241E533E901000F7233F4331501000ED
:10FB700030410F4E3150100030410B120A12091261
:10FB80000812084F094D0D9E15380A4E0B430B5BAA
:10FB90000B5B0B5B0B5B0E480E5A6F4EB012ECFA10
:10FBA0000B5F1A53099AF3370F4B384139413A41E9
:10FBB0003B4130410B43F83F0B120A120912081265
:10FBC0000712084F094E474D1E9319380A430B433D
:10FBD0000D4B1D530E4B0F48B0127AFB0A5F2B538F
:10FBE0000B99F63B3AE35A53479A07200F433741A4
:10FBF000384139413A413B4130413F43F83F4A4364
:10FC0000F33F0B120A120A4F0D4E0B4E2B833D533E
:10FC10000E4BB0127AFB4D4F0E4B0F4AB012B8FB91
:10FC20004F9305207F402B003A413B4130417F40BC
:10FC30002D003A413B4130410B123150C0FFB240E0
:10FC4000805A2001C24356005F42F9107FF0CFFF77
:10FC5000C24F5700D242F8105600E2425800F2401C
:10FC600020005300F24006002600F240160041003A
:10FC7000D2432200C2432100D2436100C24360004C
:10FC8000F24081FF6100E2436200C2436300F24040
:10FC900017006400F2F0FEFF61003F4046FEB01224
:10FCA00038FA5F4203001FF3FC275F4266007F9033
:10FCB0004500B7247F90520031247F905700542490
:10FCC0007F905800B3247F903A00EB235F420300FB
:10FCD0001FF3FC275E4266004E93AD247E900D001C
:10FCE000AA240D430F410F5DCF4E00005F42030079
:10FCF0001FF3FC275F4266004E4F1D534F930324B2
:10FD00007F900D00EF230E4D0F41B01202FC5E42BA
:10FD100065001EF3FC23C24F6700C33F5F42030030
:10FD20001FF3FC275F4266004F9316247F900D005F
:10FD300013240E430D410D5ECD4F00005F420300C2
:10FD40001FF3FC275F4266001E534F9303247F90EE
:10FD50000D00F0233E922F245F4265001FF3FC2329
:10FD6000F2402D0067009D3F5F4203001FF3FC2718
:10FD70005F4266004F9316247F900D0013240E43BC
:10FD80000D410D5ECD4F00005F4203001FF3FC27C5
:10FD90005F4266001E534F9303247F900D00F023B3
:10FDA0003E9224245F4265001FF3DA275F4265001C
:10FDB0001FF3F823D53F3D4003000E430F41B0121F
:10FDC0007AFB0B4F3D4007002E420F41B0127AFBE9
:10FDD0000B9F672F0D4B6C4D5E4265001EF3FC239D
:10FDE000C24C67001D530D9FF62B5B3F3D40030047
:10FDF0000E430F41B0127AFB0B4F3D4007002E42DD
:10FE00000F41B0127AFB0B9F4C2F0D4B6C4D5E4295
:10FE100065001EF3FC23C24C67001D530D9FF62B9B
:10FE2000403F3F404DFEB01238FA3B3F3F405EFE40
:10FE3000B01238FA363F0E43673F31400004B0122B
:06FE400038FC003CFF3F0E
:10FE4600686572700D0A0065726173652073656C72
:10FE560065637465640D0A004578697420426F6FA6
:0AFE6600746C6F616465720D0A0090
:10FFE00044FE44FE3AFE3AFE44FE3AFE3AFE3AFE33
:10FFF0003AFE3AFE3AFE3AFE3AFE3AFE3AFE3AFE41
:040000030000FA00FF
:00000001FF
