:10FA00005E4203001EF30524DF42660000000F4340
:10FA10003041FF4300003F4330415F4203001FF38A
:10FA2000FC275F42660030415E4265001EF3FC2306
:10FA3000C24F67000F4330416D4F7D900A000B2489
:10FA40001F535E4265001EF3FC23C24D67007D4FCD
:10FA50007D900A00F6235F4265001FF3FC23F2400D
:10FA60000A0067005F4265001FF3FC23F2400D00AF
:10FA7000670030410E4F3E5000403E90003C192C34
:10FA800092B32C01FD23B24084A52A01B24000A507
:10FA90002C01B24002A52801CF4300001F422C01D7
:10FAA0001FF3FC23B24000A52801B24010A52C0191
:10FAB00030413F4330410D4E3D5000403D90003CB1
:10FAC000192C92B32C01FD23B24084A52A01B24027
:10FAD00000A52C01B24040A52801CE4F00001F42D6
:10FAE0002C011FF3FC23B24000A52801B24010A551
:10FAF0002C0130413F4330413150F0FFF1403000A4
:10FB00000000F14031000100F14032000200F140FC
:10FB100033000300F14034000400F14035000500DB
:10FB2000F14036000600F14037000700F140380090
:10FB30000800F14039000900F14041000A00F1409D
:10FB400042000B00F14043000C00F14044000D0066
:10FB5000F14045000E00F14046000F007D403000AE
:10FB60000E43033C0D410D5E6D4D4F9D08241E5309
:10FB70003E901000F7233F433150100030410F4EAC
:10FB80003150100030410B120A1209120812084FAE
:10FB9000094D0D9E15380A4E0B430B5B0B5B0B5B3F
:10FBA0000B5B0E480E5A6F4EB012F8FA0B5F1A53E9
:10FBB000099AF3370F4B384139413A413B413041C3
:10FBC0000B43F83F0B120A1209120812084F094D95
:10FBD000095918240A4E0B43033C2B530B99122C42
:10FBE0000D4B1D530E4B0F48B01286FB0E4AB01240
:10FBF000B6FA1A533F93F1233F43384139413A4112
:10FC00003B4130410F43384139413A413B4130415A
:10FC10000B120A12091208120712084F094E474D1B
:10FC20001E9319380A430B430D4B1D530E4B0F48BF
:10FC3000B01286FB0A5F2B530B99F63B3AE35A53FB
:10FC4000479A07200F433741384139413A413B41F8
:10FC500030413F43F83F4A43F33F0B120A12091267
:10FC60000812071206120B4F094E1D430E43B01225
:10FC700086FB064F3D4005002E430F4BB01286FB1E
:10FC8000074F3D4007003E4006000F4BB01286FB79
:10FC9000084F0A492A830D493D530E4A0F4BB012B3
:10FCA00086FB4D4F0E4A0F4BB01210FC4F931A209B
:10FCB000489309247F402B00364137413841394170
:10FCC0003A413B4130414D460E470F4B3F52B01237
:10FCD000C4FB7F402B0036413741384139413A411E
:10FCE0003B4130417F402D00364137413841394159
:10FCF0003A413B4130410B123150C0FFB240805A73
:10FD00002001C24356005F42F9107FF0CFFFC24F7F
:10FD10005700D242F8105600E2425800F24020004C
:10FD20005300F24006002600F24016004100D24384
:10FD30002200C2432100D2436100C2436000F2406E
:10FD400081FF6100E2436200C2436300F24017009A
:10FD50006400F2F0FEFF61003F40ACFFB01238FAE1
:10FD60005F4203001FF3FC275F4266007F9045005F
:10FD700034247F90520057247F9057007B247F903B
:10FD80005800E8247F903A00EB235F4203001FF302
:10FD9000FC275E4266004E93E6247E900D00E3242D
:10FDA0000D430F410F5DCF4E00005F4203001FF374
:10FDB000FC275F4266004E4F1D534F9303247F90F4
:10FDC0000D00EF230E4D0F41B0125AFC5E4265004C
:10FDD0001EF3FC23C24F6700C33F5F4203001FF3C3
:10FDE000FC275F4266004F9312247F900D000F2482
:10FDF0000E41CE4F00005F4203001FF3FC275F421D
:10FE000066004F9304241E537F900D00F223F1905F
:10FE1000550000008C245F4265001FF3FC23F24074
:10FE20002D0067009D3F5F4203001FF3FC275F42E8
:10FE300066004F9316247F900D0013240E430D414E
:10FE40000D5ECD4F00005F4203001FF3FC275F42B1
:10FE500066001E534F9303247F900D00F0233E92C3
:10FE600030245F4265001FF3DA275F4265001FF30D
:10FE7000F823D53F5F4203001FF3FC275F42660073
:10FE80004F9316247F900D0013240E430D410D5EF9
:10FE9000CD4F00005F4203001FF3FC275F42660066
:10FEA0001E534F9303247F900D00F0233E92242491
:10FEB0005F4265001FF3B3275F4265001FF3F8231D
:10FEC000AE3F3D4003000E430F41B01286FB0B4F87
:10FED0003D4007002E420F41B01286FB0B9F402F82
:10FEE0000D4B6C4D5E4265001EF3FC23C24C670057
:10FEF0001D530D9FF62B343F3D4003000E430F4131
:10FF0000B01286FB0B4F3D4007002E420F41B0124E
:10FF100086FB0B9F252F0D4B6C4D5E4265001EF33B
:10FF2000FC23C24C67001D530D9FF62B193F3B402D
:10FF300020C00F4BB01274FA3B5000023B9020FAE5
:10FF4000F8235F4265001FF3FC23F2402B0067009B
:10FF5000304060FD3F40B5FFB01238FA0F433150DA
:10FF600040003B4130410E432E3F10421CC0104226
:10FF70001AC0104218C0104216C0104214C01042DD
:10FF800012C0104212C010420EC010420CC01042EB
:10FF90000AC0104206C0104204C031400004B01232
:0CFFA000F6FC3140000410421EC0FF3F80
:10FFAC00636C656172630D0A004578697420426F59
:0BFFBC006F746C6F616465720D0A00C9
:10FFE000AAFFAAFF96FF92FFAAFF8EFF8AFF86FF55
:10FFF00082FF7EFF7AFF76FF72FF6EFF6AFF9AFF35
:040000030000FA00FF
:00000001FF
