:10FA00005E4203001EF30524DF42660000000F4340
:10FA10003041FF4300003F4330415F4203001FF38A
:10FA2000FC275F42660030415E4265001EF3FC2306
:10FA3000C24F67000F4330416D4F7D900A000B2489
:10FA40001F535E4265001EF3FC23C24D67007D4FCD
:10FA50007D900A00F6235F4265001FF3FC23F2400D
:10FA60000A0067005F4265001FF3FC23F2400D00AF
:10FA7000670030410E4F3E5000403E90003C192C34
:10FA800092B32C01FD23B24084A52A01B24000A507
:10FA90002C01B24002A52801CF4300001F422C01D7
:10FAA0001FF3FC23B24000A52801B24010A52C0191
:10FAB00030413F4330410D4E3D5000403D90003CB1
:10FAC000192C92B32C01FD23B24084A52A01B24027
:10FAD00000A52C01B24040A52801CE4F00001F42D6
:10FAE0002C011FF3FC23B24000A52801B24010A551
:10FAF0002C0130413F4330413150F0FFF1403000A4
:10FB00000000F14031000100F14032000200F140FC
:10FB100033000300F14034000400F14035000500DB
:10FB2000F14036000600F14037000700F140380090
:10FB30000800F14039000900F14041000A00F1409D
:10FB400042000B00F14043000C00F14044000D0066
:10FB5000F14045000E00F14046000F007D403000AE
:10FB60000E43033C0D410D5E6D4D4F9D08241E5309
:10FB70003E901000F7233F433150100030410F4EAC
:10FB80003150100030410B120A1209120812084FAE
:10FB9000094D0D9E15380A4E0B430B5B0B5B0B5B3F
:10FBA0000B5B0E480E5A6F4EB012F8FA0B5F1A53E9
:10FBB000099AF3370F4B384139413A413B413041C3
:10FBC0000B43F83F0B120A1209120812084F094D95
:10FBD000095918240A4E0B43033C2B530B99122C42
:10FBE0000D4B1D530E4B0F48B01286FB0E4AB01240
:10FBF000B6FA1A533F93F1233F43384139413A4112
:10FC00003B4130410F43384139413A413B4130415A
:10FC10000B120A12091208120712084F094E474D1B
:10FC20001E9319380A430B430D4B1D530E4B0F48BF
:10FC3000B01286FB0A5F2B530B99F63B3AE35A53FB
:10FC4000479A07200F433741384139413A413B41F8
:10FC500030413F43F83F4A43F33F0B120A12091267
:10FC60000812071206120B4F094E1D430E43B01225
:10FC700086FB064F3D4005002E430F4BB01286FB1E
:10FC8000074F3D4007003E4006000F4BB01286FB79
:10FC9000084F0A492A830D493D530E4A0F4BB012B3
:10FCA00086FB4D4F0E4A0F4BB01210FC4F930924A8
:10FCB0007F402D0036413741384139413A413B417F
:10FCC0003041484848930B24589318247F402B0018
:10FCD00036413741384139413A413B4130414D4647
:10FCE0000E470F4B3F52B012C4FB7F402B003641F2
:10FCF0003741384139413A413B4130414F43DA3F86
:10FD00000B120A1209123150C0FFB240805A200172
:10FD1000C24356005F42F9107FF0CFFFC24F570039
:10FD2000D242F8105600E2425800F2402000530040
:10FD3000F24006002600F24016004100D2432200A5
:10FD4000C2432100D2436100C2436000F24081FF00
:10FD50006100E2436200C2436300F24017006400A6
:10FD6000F2F0FEFF61000D430F43043C1F533F9030
:10FD7000E803A7245E4203001EF3F8275E426600F4
:10FD80007E906200F3233F433D90D70E9E241D5387
:10FD90003F93EA235F4265001FF3FC23F2402B00F0
:10FDA00067004A435E4203001EF3FC275E42660082
:10FDB0007E90450038247E9052005B247E9058004F
:10FDC000CD247E903A00EE235E4203001EF3FC2712
:10FDD0005E4266004E93CD247E900D00CA240D43F2
:10FDE0000C410C5DCC4E00005E4203001EF3FC276C
:10FDF0005E4266001D534E9393247E900D00902426
:10FE00003D904000ED235F4265001FF3FC23F2406C
:10FE10002D0067004A93C6230F43315040003941FB
:10FE20003A413B4130415E4203001EF3FC275E42F3
:10FE300066004E9312247E900D000F240D41CD4E8E
:10FE400000005E4203001EF3FC275E4266004E93F4
:10FE500004241D537E900D00F223F1905500000004
:10FE60006B245E4265001EF3FC23F2402D00670008
:10FE7000993F5E4203001EF3FC275E4266004E93EC
:10FE800017247E900D0014240D430C410C5DCC4EC4
:10FE900000005E4203001EF3FC275E4266001D5315
:10FEA0004E9320247E900D001D243D904000ED23B4
:10FEB0005E4265001EF3D9275E4265001EF3F823FB
:10FEC000D43F0F433D90D70E62230F936A233F40E8
:10FED000B8FFB01238FA0F433150400039413A416F
:10FEE0003B4130413D92E4233D4003000E430F412E
:10FEF000B01286FB094F3D4007002E420F41B01261
:10FF000086FB0B4F099F4E2F0D496C4D5E426500DD
:10FF10001EF3FC23C24C67001D530D9BF62B423F82
:10FF20000E4D0F41B0125AFC4A4F5E4265001EF35F
:10FF3000FC23C24A67006E3F3B4020C00F4BB0120B
:10FF400074FA3B5000023B9020FAF8235E426500B1
:10FF50001EF3FC23F2402B006700243F3F40CDFFFF
:10FF6000B01238FA0F433150400039413A413B4119
:10FF700030410E43D63F10421CC010421AC01042FE
:10FF800018C0104216C0104214C0104212C01042D5
:10FF900012C010420EC010420CC010420AC01042E3
:10FFA00006C0104204C031400004B01200FD3140D0
:08FFB000000410421EC0FF3FD7
:10FFB80045786974696E6720426F6F746C6F61640D
:10FFC80065720D0A004578697420426F6F746C6F12
:07FFD800616465720D0A006F
:10FFE000B6FFB6FFA2FF9EFFB6FF9AFF96FF92FFF5
:10FFF0008EFF8AFF86FF82FF7EFF7AFF76FFA6FFD5
:040000030000FA00FF
:00000001FF
