:10C000008CC08CC08CC08CC08CC088C78CC09CC2BB
:10C010008CC0A2C98CC08CC08CC08CC08CC020C00D
:10C020005542200135D0085A8245A602314000040D
:10C030003F4000000F9308249242A60220012F8364
:10C040009F4FD2D70002F8233F40A6000F9307244A
:10C050009242A60220011F83CF430002F923B012AF
:10C0600090C03F408E02B01208C80C431D432E43BF
:10C070003F408E02B01226C83E4096003F408E02DE
:10C08000B012EAC8FF3F32D0F000FD3F304012D678
:10C09000B240805A2001C24356005F42F9107FF03F
:10C0A000CFFFC24F5700D242F8105600E24258006C
:10C0B000F24020005300B0120CC1B0128EC63F40B7
:10C0C0007800B012F6C8B0120AC932D20F4330411C
:10C0D000B240805A2001C24356005F42F9107FF0FF
:10C0E000CFFFC24F5700D242F8105600E24258002C
:10C0F000F240200053000F4330410F9306240E43BB
:10C10000034303431E530E9FFB233041F2400600BE
:10C110002600F24006004100D2432200C243210023
:10C12000D2436100C2436000F24081FF6100E243FC
:10C130006200C2436300F24017006400F2F0FEFFA9
:10C140006100D24301008243A2023D4020000E4321
:10C150003F404402B0120CCA3D4020000E433F4015
:10C160000402B0120CCA82430202824300020F434F
:10C1700030415E4265001EF3FC23C24F67000F434F
:10C1800030415F4203001FF3FC275F4266003041ED
:10C190000B121E930E380C435D4203001DF3FC2767
:10C1A0005B4266000D4F0D5CCD4B00001C530C9E96
:10C1B000F3230F433B4130410B120A123150B2FFBF
:10C1C0000A4F4B4EB1400D0A0000C1430200F1403E
:10C1D0000D000300F1400A000400F14025000500B5
:10C1E000F14020000600C14307003D4046000E43D9
:10C1F0000F413F52B0120CCA4B9325245B9340244D
:10C200006B9346247B90030030240B430F413F5235
:10C21000B01276CA0B9F112C3F420F510F5B6E4F2D
:10C220005F4265001FF3FC23C24E67001B530F41A2
:10C230003F52B01276CA0B9FEF2B0F4331504E0086
:10C240003A413B4130410E410F413F52B012F8C9D3
:10C250000E4A0F413F52B01202CB0E413E50030036
:10C260000F413F52B01202CBD03F0E410F413F521F
:10C27000B012F8C90E4A0F413F52B01202CBC53F6F
:10C280000E413E5003000F413F52B012F8C9BD3F6E
:10C290000E4A0F413F52B012F8C9B73F0F120E12AB
:10C2A0000D120C120B123150F6FF5B4266003D403E
:10C2B00040000E433F404402B0120CCA7B900D0078
:10C2C00037241F4200027B921624CF4B0402C24B3C
:10C2D0004402C24345021F53824F00026E433F4057
:10C2E0004402B012B8C131500A003B413C413D41CB
:10C2F0003E413F4100130F93F6273F53824F000208
:10C30000CF430402F2424402F24020004502F242CE
:10C310004602C24347026E433F404402B012B8C1D6
:10C3200031500A003B413C413D413E413F410013F9
:10C330003E4014D63F400402B012DAC90F933420B5
:10C340007E4003003F4017D6B012B8C17E400300C4
:10C350003F4031D6B012B8C17E4003003F404AD6BC
:10C36000B012B8C17E4003003F4059D6B012B8C1E8
:10C370007E4003003F406CD6B012B8C14E433F40F0
:10C3800017D6B012B8C13D4040000E433F400402F2
:10C39000B0120CCA8243000231500A003B413C41BA
:10C3A0003D413E413F4100133E4084D63F400402A0
:10C3B000B012DAC90F934D243E4052D73F400402D9
:10C3C000B012ACCA0F9306243F400402B01276CAE2
:10C3D0002F936F243E406FD73F400402B012ACCA87
:10C3E0000F9306243F400402B01276CA2F9375249F
:10C3F0003E4071D73F400402B012ACCA0F930624EE
:10C400003F400402B01276CA2F939E243E408ED73E
:10C410003F400402B012ACCA0F9306243F4004020E
:10C42000B01276CA2F93A4243E4090D73F40040216
:10C43000B012ACCA0F93B0243F400402B01276CAC7
:10C440003F926C246B284E433F4092D7B012B8C144
:10C450009A3F7E4003003F4089D6B012B8C17E406B
:10C4600003003F40A3D6B012B8C17E4003003F4056
:10C47000C2D6B012B8C17E4003003F40DFD6B01232
:10C48000B8C17E4003003F40FBD6B012B8C17E4029
:10C4900003003F4017D7B012B8C17E4003003F40B1
:10C4A0003AD7B012B8C14E433F4089D6B012B8C196
:10C4B0006A3F5F4205027F90300098247F903300EE
:10C4C00099247F9034009F247F90350080244E4330
:10C4D0003F4059D7B012B8C1563F5F4205027F9026
:10C4E00030008D247F903300A3247F903400A72454
:10C4F0007F903500EC237F400500B012CAC60F12B2
:10C50000301254D730124402B01204CC315006001D
:10C510004E433F404402B012B8C1353F3E4007028F
:10C520000F41B012F8C90F41B0121CCB5E42050298
:10C530007E90310073247E9032004E244E433F4063
:10C5400074D7B012B8C11F3F5F4205027F9031001F
:10C5500074247F903200F2232E433F40C800B01273
:10C5600042C95E433F4073D7B012B8C1304086C362
:10C570005F4205027F90310066247F903200DE2307
:10C580002E433F4038FFB01242C95E433F4073D74D
:10C59000B012B8C1304086C33E40A4D73F40040229
:10C5A000B012ACCA0F9306243F400402B01276CA00
:10C5B0002F934B243F400402B01276CA0F932724D6
:10C5C0004E433F40BAD7B012B8C1304086C37F4017
:10C5D0000500B01202C7933F2E43B0127EC95E43DE
:10C5E0003F4073D7B012B8C1304086C34F43B0123A
:10C5F00002C7853F7F400300B01202C7803F4F4310
:10C60000B012CAC67C3F6F42B01202C7783F5E4389
:10C610003F4073D7B012B8C1304086C31E43B0123A
:10C620007EC95E433F4073D7B012B8C1304086C365
:10C630007F400300B012CAC6623F1E438E3F6F4266
:10C64000B012CAC65C3F1E439C3F5F4205027F900A
:10C6500030000A247F90310011244E433F40A6D77A
:10C66000B012B8C1304086C3F2F0FEFF29005E432D
:10C670003F4073D7B012B8C1304086C3D2D329002F
:10C680005E433F4073D7B012B8C1304086C3824387
:10C69000B001B2401818B001B240F800B201C24374
:10C6A0004A0082438C028243880282439C02824376
:10C6B0009A02C2439F02C243A002B2F0FF0FB2012E
:10C6C000B2D00300B0010F4330415E42A0024E934E
:10C6D000FC274F930D247F90030007246F920B24B7
:10C6E0007F9005000B243F4330411F4288023041B8
:10C6F0001F428C0230411F429C0230411F429A026D
:10C700003041B012CAC60F5F0E4F0E5E0E5E0F5E56
:10C7100012C30F1012C30F1012C30F1012C30F1049
:10C7200012C30F1030414F930A247F9003000E2450
:10C730006F9220247F90050013243F433041B2F0D4
:10C74000FF0FB201B2D00300B0013041B2F0FF0FD1
:10C75000B201B2D00030B201B2D00300B00130411A
:10C76000B2F0FF0FB201B2D00050B201B2D003005C
:10C77000B0013041B2F0FF0FB201B2D00040B201BF
:10C78000B2D00300B00130410F120E120D120C1284
:10C790005F429F024F9324245F429F027F900300D9
:10C7A00026245F429F026F9228245F429F027F905F
:10C7B000050007209242B4019A02C2439F02D2436D
:10C7C000A002B2F0FCFFB001B2F0FBFFB0015F428B
:10C7D0009F02B01226C73C413D413E413F410013FC
:10C7E0009242B4018C02F24003009F02EA3F92425F
:10C7F000B4018802E2429F02E43F9242B4019C02EB
:10C80000F24005009F02DD3FBF40030000008F4360
:10C8100002008F4304008F4306008F4308008F43BC
:10C820000A000F4330418F4E00008F4D02008F4CA5
:10C8300004000F4330410B120A12091208120712AA
:10C840000B4F7F400300B01202C71A4B06000A8F3D
:10C850002F4B0E4AB012C2C9074F8B5A08001F4B0C
:10C8600008003F901F003838BB401E0008001D4BD9
:10C8700002001E4B0800194B0400184B0A008B4A9B
:10C880000A000F4DB012C2C90B470B5F0E4A0E884B
:10C890000F49B012C2C90F5B0E4F8E108E118E1051
:10C8A0008E1111381E930C383F40482E1E43B01293
:10C8B0007EC90F433741384139413A413B4130410C
:10C8C0003F90492EF12F0E930438F0233F90C8007B
:10C8D000ED2F3F40C800EA3F1F4B08003F90E2FFAA
:10C8E000C637BB40E2FF0800C23F8F4E06000F4331
:10C8F00030410F433041B24010006201824F72015B
:10C90000B240100160010F433041F24012002E008E
:10C91000C2434200F24013002A00B240102F92019D
:10C92000B240C0008401B240C0008601B240C800DD
:10C930009401B240C8009601B240100180010F433B
:10C9400030412E9311241E9316201D4294010F5D39
:10C950000D4F3D5038FF3D90812D0F2C2E93072415
:10C96000824F94010F4330411D429601F03F824FA8
:10C9700096010F4330413F4330413F4330410D4F1B
:10C980003D5038FF3D90812D0A2C2E930424824F78
:10C9900094010F433041824F96010F4330413F4392
:10C9A00030410F120E120D120C12B2F0FEFF620196
:10C9B0003F408E02B01236C83C413D413E413F41AE
:10C9C00000130D4F0F430E93072412C30D100128BF
:10C9D0000F5E0E5E0D93F7233041033C1F534D93C2
:10C9E00009246D4F7C4E4D9CF9274F4D5E4EFFFF45
:10C9F0000F8E30410F4330410D4F023C1E531D53EB
:10CA00006C4ECD4C00004C93F92330410B120A12AE
:10CA1000091208123D900600092C0C4F043CCC4E24
:10CA200000001C533D530D93FA23203C4E4E4B4EB9
:10CA30000B9303240C4B8C100BDC1FB306243D53CB
:10CA4000CF4E0000094F1953013C094F0C4D12C342
:10CA50000C100A49084C8A4B00002A533853FB2318
:10CA60000C5C0C591DF30224CC4E000038413941B6
:10CA70003A413B4130410B120A120D4F013C1D530C
:10CA8000CD930000FC230A4D8D108D118D108D115A
:10CA90000B4D0C4F0E4F8E108E118E108E110D4EB1
:10CAA0000A8C0B7D0F4A3A413B4130410B120A126E
:10CAB0000912081207120B4F694E49931B240A4EA4
:10CAC0001A530D4E1D53CD930000FC23074D078ACA
:10CAD000013C0B486F4B4F930C24084B18534F9954
:10CAE000F8230D470E4A0F48B01298D40F93F12344
:10CAF000013C0B430F4B3741384139413A413B41EF
:10CB000030410D4F013C1D53CD930000FC237C4E62
:10CB1000CD4C00001D534C93FA2330410B120E4FA5
:10CB2000013C1E536F4E7F902000FB277F90090031
:10CB3000F8277F900A00F5277F900C00F2277F905E
:10CB40000D00EF277F900B00EC277F902D00032036
:10CB50001E531B43053C7F902B0001201E530B43AB
:10CB60006F4E8F113F50D0FF3F900A00192C0D439C
:10CB70007C4E8C110F4C3F50D0FF0F5D6D4E8D11D0
:10CB80003D50D0FF3D900A00062C0F5F0D4F0D5D0C
:10CB90000D5D0D5FED3F0B9304243FE31F53013CFC
:10CBA0000F433B4130411E4286021E930B381D420B
:10CBB0008402CD4F00001D53824D84023E53824EAD
:10CBC000860230413F4330410B120A122183814ECD
:10CBD00000001A4284021B4286020D4E0E4F3F4057
:10CBE000A6CBB012FACD0F9B05380E4A0E5BCE4392
:10CBF000FFFF043C1E428402CE43000021533A4111
:10CC00003B413041924102008402B240FF7F8602E4
:10CC10000E413E5006001F410400B012C8CB304107
:10CC20009241020084029241040086020E413E526B
:10CC30001F410600B012C8CB30410C4E824F840217
:10CC4000B240FF7F86020E4D0F4CB012C8CB304170
:10CC5000824F8402824E86020E4C0F4DB012C8CB1A
:10CC600030410B120A12091208120712061205129D
:10CC700004123182084F814E0400094D1F411A00F1
:10CC80001D411C004C4D044D841045444E4F7EB058
:10CC900040001124F140300000000E4F8E105EF372
:10CCA00003247E405800023C7E407800C14E0100C3
:10CCB0000C412C530F3C7EF020000424F140300046
:10CCC0000000043C4C930524C14D00000C411C5352
:10CCD000013C0C410A4C8C108C118C108C110B4CAB
:10CCE00006410C418C108C118C108C11074C0A865B
:10CCF0000B770E4F8E10C14E02006EF202240745D4
:10CD0000013C37434F4F7FB010003C201D410400D1
:10CD10003D531D53CD930000FC231D810400099A4F
:10CD20000228098A013C0943E1B302000524099560
:10CD300002280985013C0943054D079D012C054743
:10CD40004F930D38F1402000060006430B430E3C84
:10CD50000F410F566F4F8F1116538812013C064337
:10CD6000069AF63B0B4AF14030000600058B053C65
:10CD70005F4106008F1188121B530F450F5B0F99FF
:10CD8000F72B0A3C06430B43073C1B530F410F563E
:10CD90006F4F8F1116538812069AF73BE1B30200CA
:10CDA00002244A44083C1A4104000A8B0D3C3F40CF
:10CDB000300088127A534A93FA2344440B54F33FC9
:10CDC00037538F1188121B530F4A0F5B6F4F4F93CE
:10CDD00007240793F523043C3F40200088121B538F
:10CDE0000B99FA2B0F4B31523441354136413741C3
:10CDF000384139413A413B4130410B120A12091284
:10CE0000081207120612051204123150B6FF814FA4
:10CE10003A00064E054D814E3E00C1432F00C143EE
:10CE20002B00C1432E00C1432A00814330008143BF
:10CE30002600074381432C000E413E501C00814ECA
:10CE40001C00304074D40F461F53814F400007939D
:10CE50001E207E90250013208143000081430200A4
:10CE600081463E00C1432F00C1432B00C1432E0029
:10CE7000C1432A008143300030406AD405478E11F7
:10CE80000F4E91123C0091532C00304050D47E90B4
:10CE90006300C5247E90640027347E903000942483
:10CEA0007E9031001A347E902A0077247E902B00E9
:10CEB0000A347E90230042247E902500E0277E9055
:10CEC00020003220563C7E902D0049247E902E007A
:10CED0005B247E902B002820473C7E903A008C38C3
:10CEE0007E9058002120E93C7E906F0024247E90A3
:10CEF00070000A347E906900E3247E906C00222446
:10CF00007E9064001120DC3C7E90730098247E901B
:10CF1000740004347E9070000720B83C7E90750049
:10CF2000D1247E907800D22419413E0018412C0073
:10CF3000088930403ED4B1422800CB3CF1D20000F9
:10CF400030406ED4694159F36E4104247EF0FEFFF7
:10CF50006ED3013C5ED3C14E000030406ED4F1D0A0
:10CF60001000000030406ED4F1402B000200304031
:10CF70006ED4F1902B000200022030406ED4F140BC
:10CF80002000020030406ED4C1932A0002243040B9
:10CF900054D4D1432E0030406ED40E452E532A4532
:10CFA0000A930338814A26000D3CC1932E000224C7
:10CFB000304064D4F1D0100000003AE3814A2600EA
:10CFC00091532600054E273C819326001520C193DE
:10CFD0002E001220694179F010005E4301244E4377
:10CFE0004E4E0E110E434E106A417AF07F004ADE1B
:10CFF000C14A000030406ED41A4126000A5A0C4A39
:10D000000C5C0C5C0A5C814A2600B150D0FF260003
:10D010008E11815E2600D1432A0030406ED4074530
:10D0200027536E45C1932E000320C1932A00262763
:10D03000C14E0400C14305000E412E52033C07457A
:10D0400027532E45C1932E000724E1D201001F4132
:10D050002600C14F0300063CC1932A0003249141DE
:10D06000260030000E9302203E40CAD71112040061
:10D07000111204001D4134001F413E00B01262CC69
:10D080002152815F2C000547304050D4074527537B
:10D09000294581491E005E43099301204E434E5E9F
:10D0A0004E5E4E5E6A417AF0F7FF4ADEC14A0000EA
:10D0B0000547B14010002800533CD1D30100063C85
:10D0C000E1D20000B1400A002800033CB14010004A
:10D0D00028006B416BB324240C453C52284517456E
:10D0E0000200164504001B45060081481E008147CA
:10D0F000200081462200814B2400D1432B0008935D
:10D10000062007930420069302200B930224C143B8
:10D110002B000B5B0B430B6BC14B2F00054C203CD2
:10D120005BF307450D24275228451B450200814823
:10D130001E00814B2000D1432B0008930920063CA0
:10D1400027532B45814B1E00D1432B000B93022408
:10D15000C1432B000B5B0B430B6BC14B2F000547EF
:10D16000F1B200001224C1932B000F206841B1904E
:10D1700010002800032078D04000053CB192280020
:10D18000042078D02000C1480000684168B23024F3
:10D19000C1932F002D24F1402D00020068B311240B
:10D1A000B1E31E00B1E32000B1E32200B1E32400AB
:10D1B00091531E008163200081632200816324005B
:10D1C000173C58B30F241A411E001B4120003AE3BC
:10D1D0003BE30E4A0F4B1E530F63814E1E00814FDF
:10D1E0002000063C1A411E003AE31A53814A1E00F1
:10D1F000C1431B0068B36A2416411E009141200000
:10D200003C001841220014412400074137501A0005
:10D2100009469141280032001B4128008B108B11D8
:10D220008B108B11814B3400814B3600814B3800C1
:10D2300011123A0011123A0011123A0011123A007A
:10D240000C491D4144000E480F44B012A6D531527E
:10D250000B4C3C900A0005347B503000C74B00005B
:10D260000C3C4B4CD1B3010003247A403700023C04
:10D270007A4057004A5BC74A0000064736531112EE
:10D280003A0011123A0011123A0011123A000C49F8
:10D290001D4144000E480F44B01280D53152094C54
:10D2A000814D3C00084E044F37530C93B2230D932D
:10D2B000B0230E93AE230F93AC2381431E00814312
:10D2C000200081432200814324006C3C58B33E245B
:10D2D00014411E0017412000084138501A0019411E
:10D2E000280089108911891089111C4128000D49D5
:10D2F0000E440F47B01218D50B4E3E900A0005346D
:10D300007B503000C84B00000C3C4B4ED1B30100A9
:10D3100003247A403700023C7A4057004A5BC84AEF
:10D320000000064836531C4128000D490E440F47A3
:10D33000B012E2D4044E074F38530E93D0230F930C
:10D34000CE2381431E00814320002C3C17411E0048
:10D35000084138501A001E4128000F47B012DAD495
:10D360000D4F3F900A0005347D503000C84D00003D
:10D370000C3C4D4FD1B3010003247C403700023CEC
:10D380007C4057004C5DC84C0000064836531E4197
:10D3900028000F47B012C0D4074F38530F93DB2338
:10D3A00081431E00B1900A0028000224C1430200FC
:10D3B000C1932E002A240F413F501C00814F420090
:10D3C0001A411C008A108A118A108A11814A44006D
:10D3D000814646000A468A108A118A108A11814ABB
:10D3E00048001C4142001D4144001C8146001D7143
:10D3F00048002C831C9126000E2CE1D301005E41D5
:10D4000026004E8CC14E0300063CC1932A00032423
:10D4100091412600300011120400111204001D4138
:10D4200034000E461E531F413E00B01262CC215202
:10D43000815F2C000D3C7F498F1191123C000E49F9
:10D440000E5819914000F72B81493E00814E2C0067
:10D4500007430E3C914126003000D1432E00C143CA
:10D460002A00033C054ED1432A008143260017437E
:10D47000164140006E464E930224304046CE1F4176
:10D480002C0031504A003441354136413741384152
:10D4900039413A413B4130410B120D930E246C4F00
:10D4A0007B4E4C9B05244F4C5E4EFFFF0F8E063C7F
:10D4B0001F534C9302243D53F03F0F433B413041F7
:10D4C0007C4010000D4E0E430F5F0E6E0E9D022825
:10D4D0000E8D1FD31C83F8233041B012C0D40F4EE1
:10D4E00030410B120A120912794020000A4C0B4DF0
:10D4F0000C430D430E5E0F6F0C6C0D6D0D9B0628DB
:10D5000002200C9A03280C8A0D7B1ED31983F22368
:10D5100039413A413B413041B012E2D40E4C0F4DFB
:10D52000304107120612051204123012400004485E
:10D530000549064A074B084309430A430B430C5C61
:10D540000D6D0E6E0F6F086809690A6A0B6B0B97F9
:10D550000E2808200A960B28052009950828022085
:10D5600008940528088409750A760B771CD39183E3
:10D570000000E523215334413541364137413041E4
:10D580000B120A120912081218410A0019410C0064
:10D590001A410E001B411000B01222D5384139410A
:10D5A0003A413B4130410B120A120912081218414C
:10D5B0000A0019410C001A410E001B411000B01264
:10D5C00022D50C480D490E4A0F4B384139413A419A
:10D5D0003B4130410B120A1209120812071218417E
:10D5E0000C0019410E001A4110001B411200B0122C
:10D5F00022D5174114008748000087490200874A56
:10D600000400874B06003741384139413A413B41DC
:04D610003041001392
:10D614006869003C2D2D2D2D2D2D2D2D2D2D2D2DDD
:10D624002D2D2D2D2D2D2D2D2D2D2D3E002D3E520C
:10D6340065666C6F77204F76656E20436F6E7472EB
:10D644006F6C6C6572002D3E56657273696F6E3A2D
:10D6540020312E30002D3E417574686F723A204A95
:10D664002E446177736F6E002D3E547970652048A7
:10D67400656C7020466F72204F7074696F6E730012
:10D6840068656C70003C2D2D2D2D2D2D2048656C6A
:10D6940070204D656E75202D2D2D2D2D2D3E007481
:10D6A4006E2C20726561642074656D70657261749E
:10D6B400757265206368616E6E656C206E00726EB3
:10D6C4002C207265616420414443206368616E6E5E
:10D6D400656C206E20287261772900756E2C206994
:10D6E4006E6372656D656E742050574D206368617A
:10D6F4006E6E656C206E006C6E2C206465637265C2
:10D704006D656E742050574D206368616E6E656C54
:10D71400206E00736E20782C207365742050574D52
:10D72400206368616E6E656C206E20746F20766174
:10D734006C7565207800666E2C20536574204661F4
:10D744006E204F757470757420746F206E007400B1
:10D7540025303375004368616E6E656C204E6F74BE
:10D7640020417661696C61626C650072007500002D
:10D7740050574D204368616E6E656C204E6F742067
:10D78400417661696C61626C65006C007300496E7E
:10D7940076616C69642050574D2056616C75650044
:10D7A4006600496E76616C69642046616E2053653B
:10D7B4007474696E6700556E6B6E6F776E20436F7D
:0ED7C4006D6D616E6400286E756C6C2900003E
:040000030000C02019
:00000001FF
